{
  "_format": "hh-sol-artifact-1",
  "contractName": "NFTMarket",
  "sourceName": "contracts/NFTMarket.sol",
  "abi": [
    {
      "inputs": [],
      "stateMutability": "nonpayable",
      "type": "constructor"
    },
    {
      "anonymous": false,
      "inputs": [
        {
          "indexed": true,
          "internalType": "uint256",
          "name": "itemId",
          "type": "uint256"
        },
        {
          "indexed": true,
          "internalType": "address",
          "name": "nftContract",
          "type": "address"
        },
        {
          "indexed": true,
          "internalType": "uint256",
          "name": "tokenId",
          "type": "uint256"
        },
        {
          "indexed": false,
          "internalType": "address",
          "name": "seller",
          "type": "address"
        },
        {
          "indexed": false,
          "internalType": "address",
          "name": "owner",
          "type": "address"
        },
        {
          "indexed": false,
          "internalType": "address",
          "name": "creator",
          "type": "address"
        },
        {
          "indexed": false,
          "internalType": "address",
          "name": "highestBidder",
          "type": "address"
        },
        {
          "indexed": false,
          "internalType": "uint256",
          "name": "price",
          "type": "uint256"
        },
        {
          "indexed": false,
          "internalType": "uint256",
          "name": "bidPrice",
          "type": "uint256"
        },
        {
          "indexed": false,
          "internalType": "uint256",
          "name": "royalty",
          "type": "uint256"
        },
        {
          "indexed": false,
          "internalType": "uint256",
          "name": "auction",
          "type": "uint256"
        },
        {
          "indexed": false,
          "internalType": "bool",
          "name": "sold",
          "type": "bool"
        }
      ],
      "name": "MarketItemCreated",
      "type": "event"
    },
    {
      "anonymous": false,
      "inputs": [
        {
          "indexed": true,
          "internalType": "uint256",
          "name": "itemId",
          "type": "uint256"
        }
      ],
      "name": "ProductListed",
      "type": "event"
    },
    {
      "inputs": [
        {
          "internalType": "address",
          "name": "nftContract",
          "type": "address"
        },
        {
          "internalType": "uint256",
          "name": "itemId",
          "type": "uint256"
        }
      ],
      "name": "closeAuction",
      "outputs": [],
      "stateMutability": "payable",
      "type": "function"
    },
    {
      "inputs": [
        {
          "internalType": "address",
          "name": "nftContract",
          "type": "address"
        },
        {
          "internalType": "uint256",
          "name": "tokenId",
          "type": "uint256"
        },
        {
          "internalType": "uint256",
          "name": "price",
          "type": "uint256"
        },
        {
          "internalType": "uint256",
          "name": "royalty",
          "type": "uint256"
        },
        {
          "internalType": "uint256",
          "name": "auction",
          "type": "uint256"
        }
      ],
      "name": "createMarketItem",
      "outputs": [],
      "stateMutability": "payable",
      "type": "function"
    },
    {
      "inputs": [
        {
          "internalType": "address",
          "name": "nftContract",
          "type": "address"
        },
        {
          "internalType": "uint256",
          "name": "itemId",
          "type": "uint256"
        }
      ],
      "name": "createMarketSale",
      "outputs": [],
      "stateMutability": "payable",
      "type": "function"
    },
    {
      "inputs": [],
      "name": "fetchItemsCreated",
      "outputs": [
        {
          "components": [
            {
              "internalType": "uint256",
              "name": "itemId",
              "type": "uint256"
            },
            {
              "internalType": "address",
              "name": "nftContract",
              "type": "address"
            },
            {
              "internalType": "uint256",
              "name": "tokenId",
              "type": "uint256"
            },
            {
              "internalType": "address payable",
              "name": "seller",
              "type": "address"
            },
            {
              "internalType": "address payable",
              "name": "owner",
              "type": "address"
            },
            {
              "internalType": "address payable",
              "name": "creator",
              "type": "address"
            },
            {
              "internalType": "address payable",
              "name": "highestBidder",
              "type": "address"
            },
            {
              "internalType": "uint256",
              "name": "price",
              "type": "uint256"
            },
            {
              "internalType": "uint256",
              "name": "bidPrice",
              "type": "uint256"
            },
            {
              "internalType": "uint256",
              "name": "royalty",
              "type": "uint256"
            },
            {
              "internalType": "uint256",
              "name": "auction",
              "type": "uint256"
            },
            {
              "internalType": "bool",
              "name": "sold",
              "type": "bool"
            }
          ],
          "internalType": "struct NFTMarket.MarketItem[]",
          "name": "",
          "type": "tuple[]"
        }
      ],
      "stateMutability": "view",
      "type": "function"
    },
    {
      "inputs": [],
      "name": "fetchMarketItems",
      "outputs": [
        {
          "components": [
            {
              "internalType": "uint256",
              "name": "itemId",
              "type": "uint256"
            },
            {
              "internalType": "address",
              "name": "nftContract",
              "type": "address"
            },
            {
              "internalType": "uint256",
              "name": "tokenId",
              "type": "uint256"
            },
            {
              "internalType": "address payable",
              "name": "seller",
              "type": "address"
            },
            {
              "internalType": "address payable",
              "name": "owner",
              "type": "address"
            },
            {
              "internalType": "address payable",
              "name": "creator",
              "type": "address"
            },
            {
              "internalType": "address payable",
              "name": "highestBidder",
              "type": "address"
            },
            {
              "internalType": "uint256",
              "name": "price",
              "type": "uint256"
            },
            {
              "internalType": "uint256",
              "name": "bidPrice",
              "type": "uint256"
            },
            {
              "internalType": "uint256",
              "name": "royalty",
              "type": "uint256"
            },
            {
              "internalType": "uint256",
              "name": "auction",
              "type": "uint256"
            },
            {
              "internalType": "bool",
              "name": "sold",
              "type": "bool"
            }
          ],
          "internalType": "struct NFTMarket.MarketItem[]",
          "name": "",
          "type": "tuple[]"
        }
      ],
      "stateMutability": "view",
      "type": "function"
    },
    {
      "inputs": [],
      "name": "fetchMyNFTs",
      "outputs": [
        {
          "components": [
            {
              "internalType": "uint256",
              "name": "itemId",
              "type": "uint256"
            },
            {
              "internalType": "address",
              "name": "nftContract",
              "type": "address"
            },
            {
              "internalType": "uint256",
              "name": "tokenId",
              "type": "uint256"
            },
            {
              "internalType": "address payable",
              "name": "seller",
              "type": "address"
            },
            {
              "internalType": "address payable",
              "name": "owner",
              "type": "address"
            },
            {
              "internalType": "address payable",
              "name": "creator",
              "type": "address"
            },
            {
              "internalType": "address payable",
              "name": "highestBidder",
              "type": "address"
            },
            {
              "internalType": "uint256",
              "name": "price",
              "type": "uint256"
            },
            {
              "internalType": "uint256",
              "name": "bidPrice",
              "type": "uint256"
            },
            {
              "internalType": "uint256",
              "name": "royalty",
              "type": "uint256"
            },
            {
              "internalType": "uint256",
              "name": "auction",
              "type": "uint256"
            },
            {
              "internalType": "bool",
              "name": "sold",
              "type": "bool"
            }
          ],
          "internalType": "struct NFTMarket.MarketItem[]",
          "name": "",
          "type": "tuple[]"
        }
      ],
      "stateMutability": "view",
      "type": "function"
    },
    {
      "inputs": [
        {
          "internalType": "uint256",
          "name": "itemId",
          "type": "uint256"
        }
      ],
      "name": "getHighestBid",
      "outputs": [
        {
          "internalType": "uint256",
          "name": "",
          "type": "uint256"
        }
      ],
      "stateMutability": "view",
      "type": "function"
    },
    {
      "inputs": [],
      "name": "getListingPrice",
      "outputs": [
        {
          "internalType": "uint256",
          "name": "",
          "type": "uint256"
        }
      ],
      "stateMutability": "view",
      "type": "function"
    },
    {
      "inputs": [
        {
          "internalType": "address",
          "name": "nftContract",
          "type": "address"
        },
        {
          "internalType": "uint256",
          "name": "itemId",
          "type": "uint256"
        },
        {
          "internalType": "uint256",
          "name": "price",
          "type": "uint256"
        }
      ],
      "name": "reListItem",
      "outputs": [],
      "stateMutability": "payable",
      "type": "function"
    },
    {
      "inputs": [
        {
          "internalType": "uint256",
          "name": "_bidIncrement",
          "type": "uint256"
        },
        {
          "internalType": "uint256",
          "name": "_startTime",
          "type": "uint256"
        },
        {
          "internalType": "uint256",
          "name": "_endTime",
          "type": "uint256"
        },
        {
          "internalType": "address",
          "name": "_nftContract",
          "type": "address"
        },
        {
          "internalType": "uint256",
          "name": "itemId",
          "type": "uint256"
        }
      ],
      "name": "timedBid",
      "outputs": [],
      "stateMutability": "payable",
      "type": "function"
    },
    {
      "inputs": [
        {
          "internalType": "uint256",
          "name": "itemId",
          "type": "uint256"
        }
      ],
      "name": "unlimitedBid",
      "outputs": [],
      "stateMutability": "payable",
      "type": "function"
    }
  ],
  "bytecode": "0x60806040526658d15e1762800060045534801561001b57600080fd5b506001600055600380546001600160a01b03191633179055611d19806100426000396000f3fe60806040526004361061009c5760003560e01c80638f288644116100645780638f2886441461012857806392083b9114610158578063baa9703b1461016b578063c23b139e1461017e578063c96728b214610191578063f064c32e146101a457600080fd5b80630f08efe0146100a157806312e85585146100cc578063202e3740146100eb578063438364a1146101005780634dd0e4b514610115575b600080fd5b3480156100ad57600080fd5b506100b66101b9565b6040516100c39190611ab5565b60405180910390f35b3480156100d857600080fd5b506004545b6040519081526020016100c3565b3480156100f757600080fd5b506100b66103af565b61011361010e36600461197f565b6105e3565b005b610113610123366004611a4b565b610979565b34801561013457600080fd5b506100dd610143366004611a1b565b60009081526005602052604090206008015490565b6101136101663660046119da565b610b44565b6101136101793660046119a8565b610f53565b61011361018c36600461197f565b611170565b61011361019f366004611a1b565b611420565b3480156101b057600080fd5b506100b6611648565b606060006101c660015490565b905060006101d360025490565b6001546101e09190611c9b565b90506000808267ffffffffffffffff81111561020c57634e487b7160e01b600052604160045260246000fd5b60405190808252806020026020018201604052801561024557816020015b6102326118d3565b81526020019060019003908161022a5790505b50905060005b848110156103a6576000600581610263846001611c44565b81526020810191909152604001600020600401546001600160a01b03161415610394576000600581610296846001611c44565b815260208082019290925260409081016000908120548082526005808552918390208351610180810185528154815260018201546001600160a01b039081169682019690965260028201549481019490945260038101548516606085015260048101548516608085015291820154841660a0840152600682015490931660c0830152600781015460e083015260088101546101008301526009810154610120830152600a810154610140830152600b81015460ff16151561016083015285519293509185908790811061037957634e487b7160e01b600052603260045260246000fd5b602090810291909101015261038f600186611c44565b945050505b8061039e81611cb2565b91505061024b565b50949350505050565b606060006103bc60015490565b905060008060005b8381101561041f5733600560006103dc846001611c44565b81526020810191909152604001600020600401546001600160a01b0316141561040d5761040a600184611c44565b92505b8061041781611cb2565b9150506103c4565b5060008267ffffffffffffffff81111561044957634e487b7160e01b600052604160045260246000fd5b60405190808252806020026020018201604052801561048257816020015b61046f6118d3565b8152602001906001900390816104675790505b50905060005b848110156103a65733600560006104a0846001611c44565b81526020810191909152604001600020600401546001600160a01b031614156105d15760006005816104d3846001611c44565b815260208082019290925260409081016000908120548082526005808552918390208351610180810185528154815260018201546001600160a01b039081169682019690965260028201549481019490945260038101548516606085015260048101548516608085015291820154841660a0840152600682015490931660c0830152600781015460e083015260088101546101008301526009810154610120830152600a810154610140830152600b81015460ff1615156101608301528551929350918590879081106105b657634e487b7160e01b600052603260045260246000fd5b60209081029190910101526105cc600186611c44565b945050505b806105db81611cb2565b915050610488565b6002600054141561060f5760405162461bcd60e51b815260040161060690611c0d565b60405180910390fd5b60026000908155818152600560205260409020600a01546001146106835760405162461bcd60e51b815260206004820152602560248201527f4974656d206e6f74206c697374656420666f7220756e6c696d6974656420617560448201526431ba34b7b760d91b6064820152608401610606565b6000818152600560208190526040909120908101546006909101546001600160a01b039081169116146106f15760405162461bcd60e51b81526020600482015260166024820152754e6f206269647320706c61636564206f6e206974656d60501b6044820152606401610606565b6000818152600560205260409020600301546001600160a01b031633146107645760405162461bcd60e51b815260206004820152602160248201527f4e6f7420746865206f776e657220736f2063616e6e6f7420636c6f73652062696044820152601960fa1b6064820152608401610606565b600081815260056020526040812060088101546002820154600990920154909290610790906064611c9b565b61079b606485611c5c565b6107a59190611c7c565b600085815260056020526040812060090154919250906107c6606486611c5c565b6107d09190611c7c565b6000868152600560205260408082206003015490519293506001600160a01b03169184156108fc0291859190818181858888f19350505050158015610819573d6000803e3d6000fd5b5060008581526005602081905260408083209091015490516001600160a01b039091169183156108fc02918491818181858888f19350505050158015610863573d6000803e3d6000fd5b50600085815260056020526040908190206006015490516323b872dd60e01b81526001600160a01b03808916926323b872dd926108a892309216908890600401611a91565b600060405180830381600087803b1580156108c257600080fd5b505af11580156108d6573d6000803e3d6000fd5b505050600086815260056020526040812060068101546004820180546001600160a01b0319166001600160a01b03909216919091179055600b8101805460ff19166001179055600a01555061092f600280546001019055565b6003546004546040516001600160a01b039092169181156108fc0291906000818181858888f1935050505015801561096b573d6000803e3d6000fd5b505060016000555050505050565b6002600054141561099c5760405162461bcd60e51b815260040161060690611c0d565b60026000818155828152600560205260409020600a015414610a345760405162461bcd60e51b8152602060048201526044602482018190527f4974656d206e6f74206c697374656420666f722074696d65642061756374696f908201527f6e2c20627579206974206469726563746c792066726f6d204d61726b657420506064820152636c61636560e01b608482015260a401610606565b6000818152600560205260409020600301546001600160a01b0316331415610a985760405162461bcd60e51b81526020600482015260176024820152764f776e65722063616e6e6f7420706c616365206269647360481b6044820152606401610606565b60008181526005602090815260408083206003015481516324bca20560e11b815291516001600160a01b0390911693928492634979440a9260048083019392829003018186803b158015610aeb57600080fd5b505afa158015610aff573d6000803e3d6000fd5b505050506040513d601f19601f82011682018060405250810190610b239190611a33565b905080341161096b5760405162461bcd60e51b815260040161060690611b84565b60026000541415610b675760405162461bcd60e51b815260040161060690611c0d565b600260005582610bb95760405162461bcd60e51b815260206004820152601c60248201527f5072696365206d757374206265206174206c65617374203120574549000000006044820152606401610606565b6004543414610bda5760405162461bcd60e51b815260040161060690611bc9565b6032821115610c375760405162461bcd60e51b815260206004820152602360248201527f526f79616c74792073686f756c64206265206265747765656e203020616e642060448201526235302560e81b6064820152608401610606565b6003546040516001600160a01b03909116903480156108fc02916000818181858888f19350505050158015610c70573d6000803e3d6000fd5b50610c7f600180546001019055565b6000610c8a60015490565b9050604051806101800160405280828152602001876001600160a01b03168152602001868152602001336001600160a01b0316815260200160006001600160a01b03168152602001336001600160a01b03168152602001336001600160a01b0316815260200185815260200185815260200184815260200183815260200160001515815250600560008381526020019081526020016000206000820151816000015560208201518160010160006101000a8154816001600160a01b0302191690836001600160a01b031602179055506040820151816002015560608201518160030160006101000a8154816001600160a01b0302191690836001600160a01b0316021790555060808201518160040160006101000a8154816001600160a01b0302191690836001600160a01b0316021790555060a08201518160050160006101000a8154816001600160a01b0302191690836001600160a01b0316021790555060c08201518160060160006101000a8154816001600160a01b0302191690836001600160a01b0316021790555060e082015181600701556101008201518160080155610120820151816009015561014082015181600a015561016082015181600b0160006101000a81548160ff021916908315150217905550905050856001600160a01b03166323b872dd3330886040518463ffffffff1660e01b8152600401610e9693929190611a91565b600060405180830381600087803b158015610eb057600080fd5b505af1158015610ec4573d6000803e3d6000fd5b5050604080513380825260006020830181905292820181905260608201526080810188905260a0810188905260c0810187905260e081018690526101008101919091528792506001600160a01b038916915083907fee4ef0df01c8c54d68885654b786f8ae5aa0940ad2c354d115b301f3ee56ac55906101200160405180910390a45050600160005550505050565b60026000541415610f765760405162461bcd60e51b815260040161060690611c0d565b600260009081558281526005602052604090206004015482906001600160a01b03163314610ff75760405162461bcd60e51b815260206004820152602860248201527f4f6e6c792070726f64756374206f776e65722063616e20646f2074686973206f6044820152673832b930ba34b7b760c11b6064820152608401610606565b600083815260056020526040902060020154826110565760405162461bcd60e51b815260206004820152601c60248201527f5072696365206d757374206265206174206c65617374203120574549000000006044820152606401610606565b60045434146110775760405162461bcd60e51b815260040161060690611bc9565b604051637aa9bf6f60e11b815285906001600160a01b0382169063f5537ede906110a990339030908790600401611a91565b600060405180830381600087803b1580156110c357600080fd5b505af11580156110d7573d6000803e3d6000fd5b50505060008681526005602052604090206004810180546001600160a01b03198082169092556003830180549092166001600160a01b0390911690811790915560078201879055600b909101805460ff191690559050611137600261187c565b60405186907f221866c21613d6f0d77d42f9309b122a25deed1bc186cff9c2f1ddafc52c34f690600090a2505060016000555050505050565b600260005414156111935760405162461bcd60e51b815260040161060690611c0d565b60026000908155818152600560205260409020600a01541561120b5760405162461bcd60e51b815260206004820152602b60248201527f4974656d206c697374656420666f722061756374696f6e2063616e6e6f74206260448201526a7579206469726563746c7960a81b6064820152608401610606565b6000818152600560205260409020600781015460029091015434821461128f5760405162461bcd60e51b815260206004820152603360248201527f506c65617365207375626d6974207468652061736b696e672076616c756520696044820152726e206f7264657220746f20507572636861736560681b6064820152608401610606565b6000838152600560205260408120600901546112ac906064611c9b565b6112b7606434611c5c565b6112c19190611c7c565b600085815260056020526040812060090154919250906112e2606434611c5c565b6112ec9190611c7c565b6000868152600560205260408082206003015490519293506001600160a01b03169184156108fc0291859190818181858888f19350505050158015611335573d6000803e3d6000fd5b5060008581526005602081905260408083209091015490516001600160a01b039091169183156108fc02918491818181858888f1935050505015801561137f573d6000803e3d6000fd5b506040516323b872dd60e01b81526001600160a01b038716906323b872dd906113b090309033908890600401611a91565b600060405180830381600087803b1580156113ca57600080fd5b505af11580156113de573d6000803e3d6000fd5b50505060008681526005602052604090206004810180546001600160a01b03191633179055600b01805460ff191660011790555061092f600280546001019055565b600260005414156114435760405162461bcd60e51b815260040161060690611c0d565b60026000908155818152600560205260409020600a01546001146114e05760405162461bcd60e51b815260206004820152604860248201527f4974656d206e6f74206c697374656420666f7220756e6c696d6974656420617560448201527f6374696f6e2c20627579206974206469726563746c792066726f6d204d61726b606482015267657420506c61636560c01b608482015260a401610606565b6000818152600560205260409020600301546001600160a01b03163314156115445760405162461bcd60e51b81526020600482015260176024820152764f776e65722063616e6e6f7420706c616365206269647360481b6044820152606401610606565b6000818152600560205260409020600801543481106115755760405162461bcd60e51b815260040161060690611b84565b6000828152600560208190526040909120908101546006909101546001600160a01b03908116911614156115cf57600082815260056020526040902034600882015560060180546001600160a01b0319163317905561163f565b6000828152600560205260408082206006015490516001600160a01b039091169183156108fc02918491818181858888f19350505050158015611616573d6000803e3d6000fd5b50600082815260056020526040902034600882015560060180546001600160a01b031916331790555b50506001600055565b6060600061165560015490565b905060008060005b838110156116b8573360056000611675846001611c44565b81526020810191909152604001600020600301546001600160a01b031614156116a6576116a3600184611c44565b92505b806116b081611cb2565b91505061165d565b5060008267ffffffffffffffff8111156116e257634e487b7160e01b600052604160045260246000fd5b60405190808252806020026020018201604052801561171b57816020015b6117086118d3565b8152602001906001900390816117005790505b50905060005b848110156103a6573360056000611739846001611c44565b81526020810191909152604001600020600301546001600160a01b0316141561186a57600060058161176c846001611c44565b815260208082019290925260409081016000908120548082526005808552918390208351610180810185528154815260018201546001600160a01b039081169682019690965260028201549481019490945260038101548516606085015260048101548516608085015291820154841660a0840152600682015490931660c0830152600781015460e083015260088101546101008301526009810154610120830152600a810154610140830152600b81015460ff16151561016083015285519293509185908790811061184f57634e487b7160e01b600052603260045260246000fd5b6020908102919091010152611865600186611c44565b945050505b8061187481611cb2565b915050611721565b8054806118cb5760405162461bcd60e51b815260206004820152601b60248201527f436f756e7465723a2064656372656d656e74206f766572666c6f7700000000006044820152606401610606565b600019019055565b6040518061018001604052806000815260200160006001600160a01b031681526020016000815260200160006001600160a01b0316815260200160006001600160a01b0316815260200160006001600160a01b0316815260200160006001600160a01b03168152602001600081526020016000815260200160008152602001600081526020016000151581525090565b80356001600160a01b038116811461197a57600080fd5b919050565b60008060408385031215611991578182fd5b61199a83611963565b946020939093013593505050565b6000806000606084860312156119bc578081fd5b6119c584611963565b95602085013595506040909401359392505050565b600080600080600060a086880312156119f1578081fd5b6119fa86611963565b97602087013597506040870135966060810135965060800135945092505050565b600060208284031215611a2c578081fd5b5035919050565b600060208284031215611a44578081fd5b5051919050565b600080600080600060a08688031215611a62578081fd5b853594506020860135935060408601359250611a8060608701611963565b949793965091946080013592915050565b6001600160a01b039384168152919092166020820152604081019190915260600190565b602080825282518282018190526000919060409081850190868401855b82811015611b7757815180518552868101516001600160a01b0390811688870152868201518787015260608083015182169087015260808083015182169087015260a08083015182169087015260c0808301519091169086015260e08082015190860152610100808201519086015261012080820151908601526101408082015190860152610160908101511515908501526101809093019290850190600101611ad2565b5091979650505050505050565b60208082526025908201527f4269642073686f756c6420626520686967686572207468616e2063757272656e6040820152641d08189a5960da1b606082015260800190565b60208082526024908201527f5072696365206d75737420626520657175616c20746f206c697374696e6720706040820152637269636560e01b606082015260800190565b6020808252601f908201527f5265656e7472616e637947756172643a207265656e7472616e742063616c6c00604082015260600190565b60008219821115611c5757611c57611ccd565b500190565b600082611c7757634e487b7160e01b81526012600452602481fd5b500490565b6000816000190483118215151615611c9657611c96611ccd565b500290565b600082821015611cad57611cad611ccd565b500390565b6000600019821415611cc657611cc6611ccd565b5060010190565b634e487b7160e01b600052601160045260246000fdfea2646970667358221220527de9602681b7c14b8b966d8a0090ad7469fc1d644ac7c7b83c805f9e58251764736f6c63430008040033",
  "linkReferences": {},
  "deployedLinkReferences": {}
}