{
  "_format": "hh-sol-artifact-1",
  "contractName": "NFTMarket",
  "sourceName": "contracts/NFTMarket.sol",
  "abi": [
    {
      "inputs": [],
      "stateMutability": "nonpayable",
      "type": "constructor"
    },
    {
      "anonymous": false,
      "inputs": [
        {
          "indexed": true,
          "internalType": "uint256",
          "name": "itemId",
          "type": "uint256"
        },
        {
          "indexed": true,
          "internalType": "address",
          "name": "nftContract",
          "type": "address"
        },
        {
          "indexed": true,
          "internalType": "uint256",
          "name": "tokenId",
          "type": "uint256"
        },
        {
          "indexed": false,
          "internalType": "address",
          "name": "seller",
          "type": "address"
        },
        {
          "indexed": false,
          "internalType": "address",
          "name": "owner",
          "type": "address"
        },
        {
          "indexed": false,
          "internalType": "uint256",
          "name": "price",
          "type": "uint256"
        },
        {
          "indexed": false,
          "internalType": "bool",
          "name": "sold",
          "type": "bool"
        }
      ],
      "name": "MarketItemCreated",
      "type": "event"
    },
    {
      "anonymous": false,
      "inputs": [
        {
          "indexed": true,
          "internalType": "uint256",
          "name": "itemId",
          "type": "uint256"
        }
      ],
      "name": "ProductListed",
      "type": "event"
    },
    {
      "inputs": [
        {
          "internalType": "address",
          "name": "nftContract",
          "type": "address"
        },
        {
          "internalType": "uint256",
          "name": "tokenId",
          "type": "uint256"
        },
        {
          "internalType": "uint256",
          "name": "price",
          "type": "uint256"
        }
      ],
      "name": "createMarketItem",
      "outputs": [],
      "stateMutability": "payable",
      "type": "function"
    },
    {
      "inputs": [
        {
          "internalType": "address",
          "name": "nftContract",
          "type": "address"
        },
        {
          "internalType": "uint256",
          "name": "itemId",
          "type": "uint256"
        }
      ],
      "name": "createMarketSale",
      "outputs": [],
      "stateMutability": "payable",
      "type": "function"
    },
    {
      "inputs": [],
      "name": "fetchItemsCreated",
      "outputs": [
        {
          "components": [
            {
              "internalType": "uint256",
              "name": "itemId",
              "type": "uint256"
            },
            {
              "internalType": "address",
              "name": "nftContract",
              "type": "address"
            },
            {
              "internalType": "uint256",
              "name": "tokenId",
              "type": "uint256"
            },
            {
              "internalType": "address payable",
              "name": "seller",
              "type": "address"
            },
            {
              "internalType": "address payable",
              "name": "owner",
              "type": "address"
            },
            {
              "internalType": "uint256",
              "name": "price",
              "type": "uint256"
            },
            {
              "internalType": "bool",
              "name": "sold",
              "type": "bool"
            }
          ],
          "internalType": "struct NFTMarket.MarketItem[]",
          "name": "",
          "type": "tuple[]"
        }
      ],
      "stateMutability": "view",
      "type": "function"
    },
    {
      "inputs": [],
      "name": "fetchMarketItems",
      "outputs": [
        {
          "components": [
            {
              "internalType": "uint256",
              "name": "itemId",
              "type": "uint256"
            },
            {
              "internalType": "address",
              "name": "nftContract",
              "type": "address"
            },
            {
              "internalType": "uint256",
              "name": "tokenId",
              "type": "uint256"
            },
            {
              "internalType": "address payable",
              "name": "seller",
              "type": "address"
            },
            {
              "internalType": "address payable",
              "name": "owner",
              "type": "address"
            },
            {
              "internalType": "uint256",
              "name": "price",
              "type": "uint256"
            },
            {
              "internalType": "bool",
              "name": "sold",
              "type": "bool"
            }
          ],
          "internalType": "struct NFTMarket.MarketItem[]",
          "name": "",
          "type": "tuple[]"
        }
      ],
      "stateMutability": "view",
      "type": "function"
    },
    {
      "inputs": [],
      "name": "fetchMyNFTs",
      "outputs": [
        {
          "components": [
            {
              "internalType": "uint256",
              "name": "itemId",
              "type": "uint256"
            },
            {
              "internalType": "address",
              "name": "nftContract",
              "type": "address"
            },
            {
              "internalType": "uint256",
              "name": "tokenId",
              "type": "uint256"
            },
            {
              "internalType": "address payable",
              "name": "seller",
              "type": "address"
            },
            {
              "internalType": "address payable",
              "name": "owner",
              "type": "address"
            },
            {
              "internalType": "uint256",
              "name": "price",
              "type": "uint256"
            },
            {
              "internalType": "bool",
              "name": "sold",
              "type": "bool"
            }
          ],
          "internalType": "struct NFTMarket.MarketItem[]",
          "name": "",
          "type": "tuple[]"
        }
      ],
      "stateMutability": "view",
      "type": "function"
    },
    {
      "inputs": [],
      "name": "getListingPrice",
      "outputs": [
        {
          "internalType": "uint256",
          "name": "",
          "type": "uint256"
        }
      ],
      "stateMutability": "view",
      "type": "function"
    },
    {
      "inputs": [
        {
          "internalType": "address",
          "name": "nftContract",
          "type": "address"
        },
        {
          "internalType": "uint256",
          "name": "itemId",
          "type": "uint256"
        },
        {
          "internalType": "uint256",
          "name": "price",
          "type": "uint256"
        }
      ],
      "name": "reListItem",
      "outputs": [],
      "stateMutability": "payable",
      "type": "function"
    }
  ],
  "bytecode": "0x60806040526658d15e1762800060045534801561001b57600080fd5b506001600055600380546001600160a01b03191633179055610fd8806100426000396000f3fe6080604052600436106100705760003560e01c806358eb2df51161004e57806358eb2df5146100d3578063baa9703b146100e8578063c23b139e146100fb578063f064c32e1461010e57600080fd5b80630f08efe01461007557806312e85585146100a0578063202e3740146100be575b600080fd5b34801561008157600080fd5b5061008a610123565b6040516100979190610e33565b60405180910390f35b3480156100ac57600080fd5b50600454604051908152602001610097565b3480156100ca57600080fd5b5061008a6102dd565b6100e66100e1366004610e01565b6104d5565b005b6100e66100f6366004610e01565b610747565b6100e6610109366004610dd8565b610968565b34801561011a57600080fd5b5061008a610b31565b6060600061013060015490565b9050600061013d60025490565b60015461014a9190610f5a565b90506000808267ffffffffffffffff81111561017657634e487b7160e01b600052604160045260246000fd5b6040519080825280602002602001820160405280156101af57816020015b61019c610d80565b8152602001906001900390816101945790505b50905060005b848110156102d45760006005816101cd846001610f42565b81526020810191909152604001600020600401546001600160a01b031614156102c2576000600581610200846001610f42565b81526020808201929092526040908101600090812054808252600580855291839020835160e0810185528154815260018201546001600160a01b0390811696820196909652600282015494810194909452600381015485166060850152600481015490941660808401529083015460a0830152600683015460ff16151560c083015285519093508590879081106102a757634e487b7160e01b600052603260045260246000fd5b60209081029190910101526102bd600186610f42565b945050505b806102cc81610f71565b9150506101b5565b50949350505050565b606060006102ea60015490565b905060008060005b8381101561034d57336005600061030a846001610f42565b81526020810191909152604001600020600401546001600160a01b0316141561033b57610338600184610f42565b92505b8061034581610f71565b9150506102f2565b5060008267ffffffffffffffff81111561037757634e487b7160e01b600052604160045260246000fd5b6040519080825280602002602001820160405280156103b057816020015b61039d610d80565b8152602001906001900390816103955790505b50905060005b848110156102d45733600560006103ce846001610f42565b81526020810191909152604001600020600401546001600160a01b031614156104c3576000600581610401846001610f42565b81526020808201929092526040908101600090812054808252600580855291839020835160e0810185528154815260018201546001600160a01b0390811696820196909652600282015494810194909452600381015485166060850152600481015490941660808401529083015460a0830152600683015460ff16151560c083015285519093508590879081106104a857634e487b7160e01b600052603260045260246000fd5b60209081029190910101526104be600186610f42565b945050505b806104cd81610f71565b9150506103b6565b600260005414156105015760405162461bcd60e51b81526004016104f890610f0b565b60405180910390fd5b6002600055806105535760405162461bcd60e51b815260206004820152601c60248201527f5072696365206d757374206265206174206c656173742031205745490000000060448201526064016104f8565b60045434146105745760405162461bcd60e51b81526004016104f890610ec7565b6003546040516001600160a01b03909116903480156108fc02916000818181858888f193505050501580156105ad573d6000803e3d6000fd5b506105bc600180546001019055565b60006105c760015490565b6040805160e0810182528281526001600160a01b0387811660208084018281528486018a8152336060870181815260006080890181815260a08a018e815260c08b018381528d8452600598899052928c90209a518b55955160018b018054918b166001600160a01b0319928316179055945160028b0155915160038a018054918a1691861691909117905590516004808a01805492909916919094161790965591519286019290925592516006909401805494151560ff199095169490941790935592516323b872dd60e01b81529182015230602482015260448101869052919250906323b872dd90606401600060405180830381600087803b1580156106cd57600080fd5b505af11580156106e1573d6000803e3d6000fd5b505060408051338152600060208201819052818301879052606082015290518693506001600160a01b038816925084917f045dfa01dcba2b36aba1d3dc4a874f4b0c5d2fbeb8d2c4b34a7d88c8d8f929d1919081900360800190a4505060016000555050565b6002600054141561076a5760405162461bcd60e51b81526004016104f890610f0b565b600260009081558281526005602052604090206004015482906001600160a01b031633146107eb5760405162461bcd60e51b815260206004820152602860248201527f4f6e6c792070726f64756374206f776e65722063616e20646f2074686973206f6044820152673832b930ba34b7b760c11b60648201526084016104f8565b6000838152600560205260409020600201548261084a5760405162461bcd60e51b815260206004820152601c60248201527f5072696365206d757374206265206174206c656173742031205745490000000060448201526064016104f8565b600454341461086b5760405162461bcd60e51b81526004016104f890610ec7565b604051637aa9bf6f60e11b81523360048201523060248201526044810182905285906001600160a01b0382169063f5537ede90606401600060405180830381600087803b1580156108bb57600080fd5b505af11580156108cf573d6000803e3d6000fd5b50505060008681526005602081905260409091206004810180546001600160a01b03198082169092556003830180549092166001600160a01b03909116908117909155918101879055600601805460ff19169055905061092f6002610d29565b60405186907f221866c21613d6f0d77d42f9309b122a25deed1bc186cff9c2f1ddafc52c34f690600090a2505060016000555050505050565b6002600054141561098b5760405162461bcd60e51b81526004016104f890610f0b565b6002600081815582815260056020819052604090912090810154910154348214610a135760405162461bcd60e51b815260206004820152603360248201527f506c65617365207375626d6974207468652061736b696e672076616c756520696044820152726e206f7264657220746f20507572636861736560681b60648201526084016104f8565b6000838152600560205260408082206003015490516001600160a01b039091169084908381818185875af1925050503d8060008114610a6e576040519150601f19603f3d011682016040523d82523d6000602084013e610a73565b606091505b5050905080610a8157600080fd5b6040516323b872dd60e01b8152306004820152336024820152604481018390526001600160a01b038616906323b872dd90606401600060405180830381600087803b158015610acf57600080fd5b505af1158015610ae3573d6000803e3d6000fd5b50505060008581526005602052604090206004810180546001600160a01b03191633179055600601805460ff1916600117905550610b25600280546001019055565b50506001600055505050565b60606000610b3e60015490565b905060008060005b83811015610ba1573360056000610b5e846001610f42565b81526020810191909152604001600020600301546001600160a01b03161415610b8f57610b8c600184610f42565b92505b80610b9981610f71565b915050610b46565b5060008267ffffffffffffffff811115610bcb57634e487b7160e01b600052604160045260246000fd5b604051908082528060200260200182016040528015610c0457816020015b610bf1610d80565b815260200190600190039081610be95790505b50905060005b848110156102d4573360056000610c22846001610f42565b81526020810191909152604001600020600301546001600160a01b03161415610d17576000600581610c55846001610f42565b81526020808201929092526040908101600090812054808252600580855291839020835160e0810185528154815260018201546001600160a01b0390811696820196909652600282015494810194909452600381015485166060850152600481015490941660808401529083015460a0830152600683015460ff16151560c08301528551909350859087908110610cfc57634e487b7160e01b600052603260045260246000fd5b6020908102919091010152610d12600186610f42565b945050505b80610d2181610f71565b915050610c0a565b805480610d785760405162461bcd60e51b815260206004820152601b60248201527f436f756e7465723a2064656372656d656e74206f766572666c6f77000000000060448201526064016104f8565b600019019055565b6040805160e081018252600080825260208201819052918101829052606081018290526080810182905260a0810182905260c081019190915290565b80356001600160a01b0381168114610dd357600080fd5b919050565b60008060408385031215610dea578182fd5b610df383610dbc565b946020939093013593505050565b600080600060608486031215610e15578081fd5b610e1e84610dbc565b95602085013595506040909401359392505050565b602080825282518282018190526000919060409081850190868401855b82811015610eba57815180518552868101516001600160a01b039081168887015286820151878701526060808301518216908701526080808301519091169086015260a0808201519086015260c09081015115159085015260e09093019290850190600101610e50565b5091979650505050505050565b60208082526024908201527f5072696365206d75737420626520657175616c20746f206c697374696e6720706040820152637269636560e01b606082015260800190565b6020808252601f908201527f5265656e7472616e637947756172643a207265656e7472616e742063616c6c00604082015260600190565b60008219821115610f5557610f55610f8c565b500190565b600082821015610f6c57610f6c610f8c565b500390565b6000600019821415610f8557610f85610f8c565b5060010190565b634e487b7160e01b600052601160045260246000fdfea2646970667358221220a889ba7d531974ab68272705b08c69c7d1ce88d4ab95748e6d394b33e224ad4564736f6c63430008040033",
  "linkReferences": {},
  "deployedLinkReferences": {}
}